:100000000C942A000C943F000C943F000C943F0089
:100010000C943F000C943F000C943F000C943F0064
:100020000C943F000C943F000C943F000C943F0054
:100030000C943F000C943F000C943F000C943F0044
:100040000C943F000C943F000C943F000C943F0034
:100050000C943F0011241FBECFE5D4E0DEBFCDBF1E
:1000600010E0A0E6B0E0E0E7F5E002C005900D92F8
:10007000A436B107D9F70E9462000C94B6020C9422
:1000800000000F931F93CF93DF93EC01681779075C
:1000900024F08B01081B190B04C08C01061B170BE5
:1000A000EB010115110541F00E944302B8010E94C5
:1000B000CF018C0F9D1F01C0CE01DF91CF911F9109
:1000C0000F91089565E070E080E090E00E944100AB
:1000D0008FEF8ABB87BB84BB81BB91E042E054E0D9
:1000E00028E030E160E270E4E0E88BBB88BB85BBD0
:1000F00082BBAFEFBBE7C2E9A150B040C040E1F71F
:1001000000C00000FBB3F095FBBBF5B3F095F5BB69
:10011000A4E1B0E0FBB3F095FBBBF8B3F095F8BBFE
:10012000F5B3F095F5BBF2B3F095F2BBDFEFF1EF6D
:10013000CBE2D150F040C040E1F700C00000119781
:1001400049F7F8B3F095F8BBF2B3F095F2BBA4E130
:10015000B0E09BBBDFEFFBE4CDE1D150F040C0400D
:10016000E1F700C000009BBB4BBBDFEFFBE4CDE140
:10017000D150F040C040E1F700C000001BBA5BBBAB
:10018000DFEFFBE4CDE1D150F040C040E1F700C02B
:1001900000001BBA2BBBDFEFFBE4CDE1D150F040F8
:1001A000C040E1F700C000001BBA3BBBDFEFFBE43F
:1001B000CDE1D150F040C040E1F700C000001BBAD3
:1001C0006BBBDFEFFBE4CDE1D150F040C040E1F785
:1001D00000C000001BBA7BBBDFEFFBE4CDE1D150D8
:1001E000F040C040E1F700C000001BBAEBBBDFEFFE
:1001F000FBE4CDE1D150F040C040E1F700C0000089
:100200001BBA48BBDFEFFBE4CDE1D150F040C0406A
:10021000E1F700C0000018BA58BBDFEFFBE4CDE106
:10022000D150F040C040E1F700C0000018BA28BB30
:10023000DFEFFBE4CDE1D150F040C040E1F700C07A
:10024000000018BA38BBDFEFFBE4CDE1D150F0403D
:10025000C040E1F700C0000018BA25BBDFEFFBE4A7
:10026000CDE1D150F040C040E1F700C0000015BA28
:1002700035BBDFEFFBE4CDE1D150F040C040E1F70A
:1002800000C0000015BA65BBDFEFFBE4CDE1D15043
:10029000F040C040E1F700C0000015BA75BBDFEFC9
:1002A000FBE4CDE1D150F040C040E1F700C00000D8
:1002B00015BAE5BBDFEFFBE4CDE1D150F040C04023
:1002C000E1F700C0000015BA92BBDFEFFBE4CDE11F
:1002D000D150F040C040E1F700C0000092BB42BBEB
:1002E000DFEFFBE4CDE1D150F040C040E1F700C0CA
:1002F000000012BA52BBDFEFFBE4CDE1D150F04079
:10030000C040E1F700C0000012BA22BBDFEFFBE4FF
:10031000CDE1D150F040C040E1F700C0000012BA7A
:1003200032BBDFEFFBE4CDE1D150F040C040E1F75C
:1003300000C0000012BA62BBDFEFFBE4CDE1D15098
:10034000F040C040E1F700C0000012BA72BBDFEF1E
:10035000FBE4CDE1D150F040C040E1F700C0000027
:1003600012BAE2BBDFEFFBE4CDE1D150F040C04078
:10037000E1F700C0000012BA119709F0EACE8BBB7A
:1003800088BB85BB82BBDFEFFDE0A7E2B7E0D150C1
:10039000F040A040B040D9F700C00000A6CE97FBC7
:1003A000072E16F4009407D077FD09D00E94E301D0
:1003B00007FC05D03EF4909581959F4F0895709568
:1003C00061957F4F0895AA1BBB1B51E107C0AA1F6F
:1003D000BB1FA617B70710F0A61BB70B881F991FE6
:1003E0005A95A9F780959095BC01CD0108958F92FB
:1003F0009F92AF92BF92CF92DF92EF92FF92CF93F4
:10040000DF93EC01688179818A819B816115710597
:100410008105910521F464E279ED8BE597E02DE10A
:1004200033EF41E050E00E94530249015A019B0121
:10043000AC01A7EAB1E40E9472026B017C01ACEE50
:10044000B4EFA50194010E948002DC01CB018C0D68
:100450009D1DAE1DBF1DB7FF03C00197A109B04888
:1004600088839983AA83BB839F77DF91CF91FF9085
:10047000EF90DF90CF90BF90AF909F908F900895B6
:100480000E94F701089580E690E00E94F701089528
:10049000A0E0B0E08093600090936100A0936200C0
:1004A000B09363000895052E97FB1EF400940E94FC
:1004B0006A0257FD07D00E94850207FC03D04EF464
:1004C0000C946A0250954095309521953F4F4F4FBF
:1004D0005F4F089590958095709561957F4F8F4FF0
:1004E0009F4F08950E94A702A59F900DB49F900D65
:1004F000A49F800D911D11240895B7FF0C947202E2
:100500000E947202821B930B0895A1E21A2EAA1B6D
:10051000BB1BFD010DC0AA1FBB1FEE1FFF1FA217B3
:10052000B307E407F50720F0A21BB30BE40BF50BB0
:10053000661F771F881F991F1A9469F76095709539
:10054000809590959B01AC01BD01CF010895A29FBC
:10055000B001B39FC001A39F700D811D1124911D97
:10056000B29F700D811D1124911D0895F894FFCF45
:040570000100000086
:00000001FF
